{
  "contractName": "ElectionFactory",
  "abi": [
    {
      "inputs": [
        {
          "internalType": "string",
          "name": "email",
          "type": "string"
        },
        {
          "internalType": "string",
          "name": "election_name",
          "type": "string"
        },
        {
          "internalType": "string",
          "name": "election_description",
          "type": "string"
        }
      ],
      "name": "createElection",
      "outputs": [],
      "stateMutability": "nonpayable",
      "type": "function"
    },
    {
      "inputs": [
        {
          "internalType": "string",
          "name": "email",
          "type": "string"
        }
      ],
      "name": "getDeployedElection",
      "outputs": [
        {
          "internalType": "address",
          "name": "",
          "type": "address"
        },
        {
          "internalType": "string",
          "name": "",
          "type": "string"
        },
        {
          "internalType": "string",
          "name": "",
          "type": "string"
        }
      ],
      "stateMutability": "view",
      "type": "function",
      "constant": true
    }
  ],
  "bytecode": "0x608060405234801561001057600080fd5b50612208806100206000396000f3fe60806040523480156200001157600080fd5b50600436106200003a5760003560e01c806337f46549146200003f5780634a6cf3a91462000077575b600080fd5b6200005d600480360381019062000057919062000680565b62000097565b6040516200006e93929190620007a9565b60405180910390f35b6200009560048036038101906200008f9190620007f4565b6200032f565b005b600060608060008085604051620000af9190620008ef565b908152602001604051809103902060000160009054906101000a900473ffffffffffffffffffffffffffffffffffffffff169050600073ffffffffffffffffffffffffffffffffffffffff168173ffffffffffffffffffffffffffffffffffffffff1614156200016e576000604051806020016040528060008152506040518060400160405280601381526020017f43726561746520616e20656c656374696f6e2e000000000000000000000000008152509350935093505062000328565b600085604051620001809190620008ef565b908152602001604051809103902060000160009054906101000a900473ffffffffffffffffffffffffffffffffffffffff16600086604051620001c49190620008ef565b9081526020016040518091039020600101600087604051620001e79190620008ef565b9081526020016040518091039020600201818054620002069062000937565b80601f0160208091040260200160405190810160405280929190818152602001828054620002349062000937565b8015620002855780601f10620002595761010080835404028352916020019162000285565b820191906000526020600020905b8154815290600101906020018083116200026757829003601f168201915b505050505091508080546200029a9062000937565b80601f0160208091040260200160405190810160405280929190818152602001828054620002c89062000937565b8015620003195780601f10620002ed5761010080835404028352916020019162000319565b820191906000526020600020905b815481529060010190602001808311620002fb57829003601f168201915b50505050509050935093509350505b9193909250565b600033838360405162000342906200044c565b6200035093929190620007a9565b604051809103906000f0801580156200036d573d6000803e3d6000fd5b50905080600085604051620003839190620008ef565b908152602001604051809103902060000160006101000a81548173ffffffffffffffffffffffffffffffffffffffff021916908373ffffffffffffffffffffffffffffffffffffffff16021790555082600085604051620003e59190620008ef565b908152602001604051809103902060010190805190602001906200040b9291906200045a565b50816000856040516200041f9190620008ef565b90815260200160405180910390206002019080519060200190620004459291906200045a565b5050505050565b611865806200096e83390190565b828054620004689062000937565b90600052602060002090601f0160209004810192826200048c5760008555620004d8565b82601f10620004a757805160ff1916838001178555620004d8565b82800160010185558215620004d8579182015b82811115620004d7578251825591602001919060010190620004ba565b5b509050620004e79190620004eb565b5090565b5b8082111562000506576000816000905550600101620004ec565b5090565b6000604051905090565b600080fd5b600080fd5b600080fd5b600080fd5b6000601f19601f8301169050919050565b7f4e487b7100000000000000000000000000000000000000000000000000000000600052604160045260246000fd5b620005738262000528565b810181811067ffffffffffffffff8211171562000595576200059462000539565b5b80604052505050565b6000620005aa6200050a565b9050620005b8828262000568565b919050565b600067ffffffffffffffff821115620005db57620005da62000539565b5b620005e68262000528565b9050602081019050919050565b82818337600083830152505050565b6000620006196200061384620005bd565b6200059e565b90508281526020810184848401111562000638576200063762000523565b5b62000645848285620005f3565b509392505050565b600082601f8301126200066557620006646200051e565b5b81356200067784826020860162000602565b91505092915050565b60006020828403121562000699576200069862000514565b5b600082013567ffffffffffffffff811115620006ba57620006b962000519565b5b620006c8848285016200064d565b91505092915050565b600073ffffffffffffffffffffffffffffffffffffffff82169050919050565b6000620006fe82620006d1565b9050919050565b6200071081620006f1565b82525050565b600081519050919050565b600082825260208201905092915050565b60005b838110156200075257808201518184015260208101905062000735565b8381111562000762576000848401525b50505050565b6000620007758262000716565b62000781818562000721565b93506200079381856020860162000732565b6200079e8162000528565b840191505092915050565b6000606082019050620007c0600083018662000705565b8181036020830152620007d4818562000768565b90508181036040830152620007ea818462000768565b9050949350505050565b60008060006060848603121562000810576200080f62000514565b5b600084013567ffffffffffffffff81111562000831576200083062000519565b5b6200083f868287016200064d565b935050602084013567ffffffffffffffff81111562000863576200086262000519565b5b62000871868287016200064d565b925050604084013567ffffffffffffffff81111562000895576200089462000519565b5b620008a3868287016200064d565b9150509250925092565b600081905092915050565b6000620008c58262000716565b620008d18185620008ad565b9350620008e381856020860162000732565b80840191505092915050565b6000620008fd8284620008b8565b915081905092915050565b7f4e487b7100000000000000000000000000000000000000000000000000000000600052602260045260246000fd5b600060028204905060018216806200095057607f821691505b6020821081141562000967576200096662000908565b5b5091905056fe60806040523480156200001157600080fd5b50604051620018653803806200186583398181016040528101906200003791906200037f565b826000806101000a81548173ffffffffffffffffffffffffffffffffffffffff021916908373ffffffffffffffffffffffffffffffffffffffff16021790555081600190805190602001906200008f929190620000cd565b508060029080519060200190620000a8929190620000cd565b506001600360006101000a81548160ff0219169083151502179055505050506200047e565b828054620000db9062000448565b90600052602060002090601f016020900481019282620000ff57600085556200014b565b82601f106200011a57805160ff19168380011785556200014b565b828001600101855582156200014b579182015b828111156200014a5782518255916020019190600101906200012d565b5b5090506200015a91906200015e565b5090565b5b80821115620001795760008160009055506001016200015f565b5090565b6000604051905090565b600080fd5b600080fd5b600073ffffffffffffffffffffffffffffffffffffffff82169050919050565b6000620001be8262000191565b9050919050565b620001d081620001b1565b8114620001dc57600080fd5b50565b600081519050620001f081620001c5565b92915050565b600080fd5b600080fd5b6000601f19601f8301169050919050565b7f4e487b7100000000000000000000000000000000000000000000000000000000600052604160045260246000fd5b6200024b8262000200565b810181811067ffffffffffffffff821117156200026d576200026c62000211565b5b80604052505050565b6000620002826200017d565b905062000290828262000240565b919050565b600067ffffffffffffffff821115620002b357620002b262000211565b5b620002be8262000200565b9050602081019050919050565b60005b83811015620002eb578082015181840152602081019050620002ce565b83811115620002fb576000848401525b50505050565b600062000318620003128462000295565b62000276565b905082815260208101848484011115620003375762000336620001fb565b5b62000344848285620002cb565b509392505050565b600082601f830112620003645762000363620001f6565b5b81516200037684826020860162000301565b91505092915050565b6000806000606084860312156200039b576200039a62000187565b5b6000620003ab86828701620001df565b935050602084015167ffffffffffffffff811115620003cf57620003ce6200018c565b5b620003dd868287016200034c565b925050604084015167ffffffffffffffff8111156200040157620004006200018c565b5b6200040f868287016200034c565b9150509250925092565b7f4e487b7100000000000000000000000000000000000000000000000000000000600052602260045260246000fd5b600060028204905060018216806200046157607f821691505b6020821081141562000478576200047762000419565b5b50919050565b6113d7806200048e6000396000f3fe608060405234801561001057600080fd5b50600436106100885760003560e01c8063b224c40a1161005b578063b224c40a14610119578063cde9370f14610135578063e8685ba114610169578063ed836bc31461018757610088565b806342b03cc91461008d57806365fc783c146100a95780636d6277f4146100c7578063a15148d1146100fb575b600080fd5b6100a760048036038101906100a29190610ecb565b6101a6565b005b6100b1610352565b6040516100be9190610fbe565b60405180910390f35b6100e160048036038101906100dc9190611005565b610369565b6040516100f29594939291906110ba565b60405180910390f35b6101036105cc565b6040516101109190610fbe565b60405180910390f35b610133600480360381019061012e9190611129565b610730565b005b61014f600480360381019061014a9190611005565b6108aa565b6040516101609594939291906110ba565b60405180910390f35b610171610b90565b60405161017e9190610fbe565b60405180910390f35b61018f610ba7565b60405161019d929190611185565b60405180910390f35b60008054906101000a900473ffffffffffffffffffffffffffffffffffffffff1673ffffffffffffffffffffffffffffffffffffffff163373ffffffffffffffffffffffffffffffffffffffff1614610234576040517f08c379a000000000000000000000000000000000000000000000000000000000815260040161022b90611208565b60405180910390fd5b60006006600081819054906101000a900460ff168092919061025590611257565b91906101000a81548160ff021916908360ff16021790555090506040518060a00160405280868152602001858152602001848152602001600060ff16815260200183815250600460008360ff1660ff16815260200190815260200160002060008201518160000190805190602001906102cf929190610cce565b5060208201518160010190805190602001906102ec929190610cce565b506040820151816002019080519060200190610309929190610cce565b5060608201518160030160006101000a81548160ff021916908360ff1602179055506080820151816004019080519060200190610347929190610cce565b509050505050505050565b6000600660019054906101000a900460ff16905090565b600460205280600052604060002060009150905080600001805461038c906112b0565b80601f01602080910402602001604051908101604052809291908181526020018280546103b8906112b0565b80156104055780601f106103da57610100808354040283529160200191610405565b820191906000526020600020905b8154815290600101906020018083116103e857829003601f168201915b50505050509080600101805461041a906112b0565b80601f0160208091040260200160405190810160405280929190818152602001828054610446906112b0565b80156104935780601f1061046857610100808354040283529160200191610493565b820191906000526020600020905b81548152906001019060200180831161047657829003601f168201915b5050505050908060020180546104a8906112b0565b80601f01602080910402602001604051908101604052809291908181526020018280546104d4906112b0565b80156105215780601f106104f657610100808354040283529160200191610521565b820191906000526020600020905b81548152906001019060200180831161050457829003601f168201915b5050505050908060030160009054906101000a900460ff1690806004018054610549906112b0565b80601f0160208091040260200160405190810160405280929190818152602001828054610575906112b0565b80156105c25780601f10610597576101008083540402835291602001916105c2565b820191906000526020600020905b8154815290600101906020018083116105a557829003601f168201915b5050505050905085565b60008060009054906101000a900473ffffffffffffffffffffffffffffffffffffffff1673ffffffffffffffffffffffffffffffffffffffff163373ffffffffffffffffffffffffffffffffffffffff161461065d576040517f08c379a000000000000000000000000000000000000000000000000000000000815260040161065490611208565b60405180910390fd5b6000600460008060ff16815260200190815260200160002060030160009054906101000a900460ff169050600080600190505b600660009054906101000a900460ff1660ff168160ff16101561072757600460008260ff1660ff16815260200190815260200160002060030160009054906101000a900460ff1660ff168360ff16101561071457600460008260ff1660ff16815260200190815260200160002060030160009054906101000a900460ff1692508091505b808061071f90611257565b915050610690565b50809250505090565b600581604051610740919061131e565b908152602001604051809103902060000160019054906101000a900460ff161561079f576040517f08c379a000000000000000000000000000000000000000000000000000000000815260040161079690611381565b60405180910390fd5b60405180604001604052808360ff168152602001600115158152506005826040516107ca919061131e565b908152602001604051809103902060008201518160000160006101000a81548160ff021916908360ff16021790555060208201518160000160016101000a81548160ff0219169083151502179055509050506006600181819054906101000a900460ff168092919061083b90611257565b91906101000a81548160ff021916908360ff16021790555050600460008360ff1660ff168152602001908152602001600020600301600081819054906101000a900460ff168092919061088d90611257565b91906101000a81548160ff021916908360ff160217905550505050565b606080606060006060600460008760ff1660ff168152602001908152602001600020600001600460008860ff1660ff168152602001908152602001600020600101600460008960ff1660ff168152602001908152602001600020600201600460008a60ff1660ff16815260200190815260200160002060030160009054906101000a900460ff16600460008b60ff1660ff168152602001908152602001600020600401848054610959906112b0565b80601f0160208091040260200160405190810160405280929190818152602001828054610985906112b0565b80156109d25780601f106109a7576101008083540402835291602001916109d2565b820191906000526020600020905b8154815290600101906020018083116109b557829003601f168201915b505050505094508380546109e5906112b0565b80601f0160208091040260200160405190810160405280929190818152602001828054610a11906112b0565b8015610a5e5780601f10610a3357610100808354040283529160200191610a5e565b820191906000526020600020905b815481529060010190602001808311610a4157829003601f168201915b50505050509350828054610a71906112b0565b80601f0160208091040260200160405190810160405280929190818152602001828054610a9d906112b0565b8015610aea5780601f10610abf57610100808354040283529160200191610aea565b820191906000526020600020905b815481529060010190602001808311610acd57829003601f168201915b50505050509250808054610afd906112b0565b80601f0160208091040260200160405190810160405280929190818152602001828054610b29906112b0565b8015610b765780601f10610b4b57610100808354040283529160200191610b76565b820191906000526020600020905b815481529060010190602001808311610b5957829003601f168201915b505050505090509450945094509450945091939590929450565b6000600660009054906101000a900460ff16905090565b60608060016002818054610bba906112b0565b80601f0160208091040260200160405190810160405280929190818152602001828054610be6906112b0565b8015610c335780601f10610c0857610100808354040283529160200191610c33565b820191906000526020600020905b815481529060010190602001808311610c1657829003601f168201915b50505050509150808054610c46906112b0565b80601f0160208091040260200160405190810160405280929190818152602001828054610c72906112b0565b8015610cbf5780601f10610c9457610100808354040283529160200191610cbf565b820191906000526020600020905b815481529060010190602001808311610ca257829003601f168201915b50505050509050915091509091565b828054610cda906112b0565b90600052602060002090601f016020900481019282610cfc5760008555610d43565b82601f10610d1557805160ff1916838001178555610d43565b82800160010185558215610d43579182015b82811115610d42578251825591602001919060010190610d27565b5b509050610d509190610d54565b5090565b5b80821115610d6d576000816000905550600101610d55565b5090565b6000604051905090565b600080fd5b600080fd5b600080fd5b600080fd5b6000601f19601f8301169050919050565b7f4e487b7100000000000000000000000000000000000000000000000000000000600052604160045260246000fd5b610dd882610d8f565b810181811067ffffffffffffffff82111715610df757610df6610da0565b5b80604052505050565b6000610e0a610d71565b9050610e168282610dcf565b919050565b600067ffffffffffffffff821115610e3657610e35610da0565b5b610e3f82610d8f565b9050602081019050919050565b82818337600083830152505050565b6000610e6e610e6984610e1b565b610e00565b905082815260208101848484011115610e8a57610e89610d8a565b5b610e95848285610e4c565b509392505050565b600082601f830112610eb257610eb1610d85565b5b8135610ec2848260208601610e5b565b91505092915050565b60008060008060808587031215610ee557610ee4610d7b565b5b600085013567ffffffffffffffff811115610f0357610f02610d80565b5b610f0f87828801610e9d565b945050602085013567ffffffffffffffff811115610f3057610f2f610d80565b5b610f3c87828801610e9d565b935050604085013567ffffffffffffffff811115610f5d57610f5c610d80565b5b610f6987828801610e9d565b925050606085013567ffffffffffffffff811115610f8a57610f89610d80565b5b610f9687828801610e9d565b91505092959194509250565b600060ff82169050919050565b610fb881610fa2565b82525050565b6000602082019050610fd36000830184610faf565b92915050565b610fe281610fa2565b8114610fed57600080fd5b50565b600081359050610fff81610fd9565b92915050565b60006020828403121561101b5761101a610d7b565b5b600061102984828501610ff0565b91505092915050565b600081519050919050565b600082825260208201905092915050565b60005b8381101561106c578082015181840152602081019050611051565b8381111561107b576000848401525b50505050565b600061108c82611032565b611096818561103d565b93506110a681856020860161104e565b6110af81610d8f565b840191505092915050565b600060a08201905081810360008301526110d48188611081565b905081810360208301526110e88187611081565b905081810360408301526110fc8186611081565b905061110b6060830185610faf565b818103608083015261111d8184611081565b90509695505050505050565b600080604083850312156111405761113f610d7b565b5b600061114e85828601610ff0565b925050602083013567ffffffffffffffff81111561116f5761116e610d80565b5b61117b85828601610e9d565b9150509250929050565b6000604082019050818103600083015261119f8185611081565b905081810360208301526111b38184611081565b90509392505050565b7f4572726f723a204163636573732044656e6965642e0000000000000000000000600082015250565b60006111f260158361103d565b91506111fd826111bc565b602082019050919050565b60006020820190508181036000830152611221816111e5565b9050919050565b7f4e487b7100000000000000000000000000000000000000000000000000000000600052601160045260246000fd5b600061126282610fa2565b915060ff82141561127657611275611228565b5b600182019050919050565b7f4e487b7100000000000000000000000000000000000000000000000000000000600052602260045260246000fd5b600060028204905060018216806112c857607f821691505b602082108114156112dc576112db611281565b5b50919050565b600081905092915050565b60006112f882611032565b61130281856112e2565b935061131281856020860161104e565b80840191505092915050565b600061132a82846112ed565b915081905092915050565b7f4572726f723a596f752063616e6e6f7420646f75626c6520766f746500000000600082015250565b600061136b601c8361103d565b915061137682611335565b602082019050919050565b6000602082019050818103600083015261139a8161135e565b905091905056fea264697066735822122085950a215f76b46ec62b358c36d5de13fd1e265edc39262d581cc71d1b3d532564736f6c63430008090033a26469706673582212207b8277817785721522aabcd6231b7ebbc8cfb897c0d6ff4922083e11994d222064736f6c63430008090033",
  "immutableReferences": {},
  "source": "// SPDX-License-Identifier: MIT\npragma solidity >=0.4.22 <0.9.0;\n\nimport './Election.sol';\n\ncontract ElectionFactory {\n  struct ElectionDet {\n    address deployedAddress;\n    string el_n;\n    string el_d;\n  }\n\n  mapping(string => ElectionDet) companyEmail;\n\n  function createElection(\n    string memory email,\n    string memory election_name,\n    string memory election_description\n  ) public {\n    Election newElection = new Election(\n      msg.sender,\n      election_name,\n      election_description\n    );\n\n    companyEmail[email].deployedAddress = address(newElection);\n    companyEmail[email].el_n = election_name;\n    companyEmail[email].el_d = election_description;\n  }\n\n  function getDeployedElection(string memory email)\n    public\n    view\n    returns (\n      address,\n      string memory,\n      string memory\n    )\n  {\n    address val = companyEmail[email].deployedAddress;\n    if (val == address(0)) return (address(0), '', 'Create an election.');\n    else\n      return (\n        companyEmail[email].deployedAddress,\n        companyEmail[email].el_n,\n        companyEmail[email].el_d\n      );\n  }\n}\n",
  "sourcePath": "/home/karan/ethereum-projects/blockchain-e-voting/smart-contracts-2/contracts/ElectionFactory.sol",
  "compiler": {
    "name": "solc",
    "version": "0.8.9+commit.e5eed63a.Emscripten.clang"
  },
  "schemaVersion": "3.4.6",
  "updatedAt": "2022-05-29T09:15:04.444Z",
  "networkType": "ethereum",
  "devdoc": {
    "kind": "dev",
    "methods": {},
    "version": 1
  },
  "userdoc": {
    "kind": "user",
    "methods": {},
    "version": 1
  }
}